{
  "contractName": "Enderun",
  "abi": [
    {
      "inputs": [
        {
          "internalType": "address[]",
          "name": "_studentGovernment",
          "type": "address[]"
        },
        {
          "internalType": "uint256",
          "name": "_quorum",
          "type": "uint256"
        }
      ],
      "stateMutability": "payable",
      "type": "constructor",
      "payable": true
    },
    {
      "inputs": [],
      "name": "quorum",
      "outputs": [
        {
          "internalType": "uint256",
          "name": "",
          "type": "uint256"
        }
      ],
      "stateMutability": "view",
      "type": "function",
      "constant": true
    },
    {
      "inputs": [
        {
          "internalType": "uint256",
          "name": "",
          "type": "uint256"
        }
      ],
      "name": "studentGovernment",
      "outputs": [
        {
          "internalType": "address",
          "name": "",
          "type": "address"
        }
      ],
      "stateMutability": "view",
      "type": "function",
      "constant": true
    },
    {
      "stateMutability": "payable",
      "type": "receive",
      "payable": true
    },
    {
      "inputs": [],
      "name": "deposit",
      "outputs": [],
      "stateMutability": "payable",
      "type": "function",
      "payable": true
    },
    {
      "inputs": [],
      "name": "balance",
      "outputs": [
        {
          "internalType": "uint256",
          "name": "",
          "type": "uint256"
        }
      ],
      "stateMutability": "view",
      "type": "function",
      "constant": true
    },
    {
      "inputs": [],
      "name": "currentId",
      "outputs": [
        {
          "internalType": "uint256",
          "name": "",
          "type": "uint256"
        }
      ],
      "stateMutability": "view",
      "type": "function",
      "constant": true
    },
    {
      "inputs": [
        {
          "internalType": "address payable",
          "name": "_to",
          "type": "address"
        },
        {
          "internalType": "uint256",
          "name": "_amount",
          "type": "uint256"
        }
      ],
      "name": "transactionProposal",
      "outputs": [],
      "stateMutability": "nonpayable",
      "type": "function"
    },
    {
      "inputs": [
        {
          "internalType": "uint256",
          "name": "_id",
          "type": "uint256"
        }
      ],
      "name": "executeTransaction",
      "outputs": [],
      "stateMutability": "nonpayable",
      "type": "function"
    }
  ],
  "bytecode": "0x608060405260405162000f4038038062000f40833981810160405281019062000029919062000328565b81600090805190602001906200004192919062000051565b508060018190555050506200038e565b828054828255906000526020600020908101928215620000cd579160200282015b82811115620000cc5782518260006101000a81548173ffffffffffffffffffffffffffffffffffffffff021916908373ffffffffffffffffffffffffffffffffffffffff1602179055509160200191906001019062000072565b5b509050620000dc9190620000e0565b5090565b5b80821115620000fb576000816000905550600101620000e1565b5090565b6000604051905090565b600080fd5b600080fd5b600080fd5b6000601f19601f8301169050919050565b7f4e487b7100000000000000000000000000000000000000000000000000000000600052604160045260246000fd5b620001638262000118565b810181811067ffffffffffffffff8211171562000185576200018462000129565b5b80604052505050565b60006200019a620000ff565b9050620001a8828262000158565b919050565b600067ffffffffffffffff821115620001cb57620001ca62000129565b5b602082029050602081019050919050565b600080fd5b600073ffffffffffffffffffffffffffffffffffffffff82169050919050565b60006200020e82620001e1565b9050919050565b620002208162000201565b81146200022c57600080fd5b50565b600081519050620002408162000215565b92915050565b60006200025d6200025784620001ad565b6200018e565b90508083825260208201905060208402830185811115620002835762000282620001dc565b5b835b81811015620002b057806200029b88826200022f565b84526020840193505060208101905062000285565b5050509392505050565b600082601f830112620002d257620002d162000113565b5b8151620002e484826020860162000246565b91505092915050565b6000819050919050565b6200030281620002ed565b81146200030e57600080fd5b50565b6000815190506200032281620002f7565b92915050565b6000806040838503121562000342576200034162000109565b5b600083015167ffffffffffffffff8111156200036357620003626200010e565b5b6200037185828601620002ba565b9250506020620003848582860162000311565b9150509250929050565b610ba2806200039e6000396000f3fe6080604052600436106100745760003560e01c8063bb53ee661161004e578063bb53ee66146100ff578063d0e30db01461013c578063e00dd16114610146578063ee22610b146101715761007b565b80631703a01814610080578063a8f9d941146100ab578063b69ef8a8146100d45761007b565b3661007b57005b600080fd5b34801561008c57600080fd5b5061009561019a565b6040516100a2919061073f565b60405180910390f35b3480156100b757600080fd5b506100d260048036038101906100cd91906107e9565b6101a0565b005b3480156100e057600080fd5b506100e96103c3565b6040516100f6919061073f565b60405180910390f35b34801561010b57600080fd5b5061012660048036038101906101219190610829565b6103cb565b6040516101339190610877565b60405180910390f35b61014461040a565b005b34801561015257600080fd5b5061015b61040c565b604051610168919061073f565b60405180910390f35b34801561017d57600080fd5b5061019860048036038101906101939190610829565b610416565b005b60015481565b6000805b60008054905081101561023b573373ffffffffffffffffffffffffffffffffffffffff16600082815481106101dc576101db610892565b5b9060005260206000200160009054906101000a900473ffffffffffffffffffffffffffffffffffffffff1673ffffffffffffffffffffffffffffffffffffffff16141561022857600191505b8080610233906108f0565b9150506101a4565b506001151581151514610283576040517f08c379a000000000000000000000000000000000000000000000000000000000815260040161027a906109bc565b60405180910390fd5b478211156102c6576040517f08c379a00000000000000000000000000000000000000000000000000000000081526004016102bd90610a4e565b60405180910390fd5b6040518060a0016040528060045481526020018381526020018473ffffffffffffffffffffffffffffffffffffffff1681526020016000815260200160001515815250600260006004548152602001908152602001600020600082015181600001556020820151816001015560408201518160020160006101000a81548173ffffffffffffffffffffffffffffffffffffffff021916908373ffffffffffffffffffffffffffffffffffffffff1602179055506060820151816003015560808201518160040160006101000a81548160ff021916908315150217905550905050600460008154809291906103b9906108f0565b9190505550505050565b600047905090565b600081815481106103db57600080fd5b906000526020600020016000915054906101000a900473ffffffffffffffffffffffffffffffffffffffff1681565b565b6000600454905090565b6000805b6000805490508110156104b1573373ffffffffffffffffffffffffffffffffffffffff166000828154811061045257610451610892565b5b9060005260206000200160009054906101000a900473ffffffffffffffffffffffffffffffffffffffff1673ffffffffffffffffffffffffffffffffffffffff16141561049e57600191505b80806104a9906108f0565b91505061041a565b5060011515811515146104f9576040517f08c379a00000000000000000000000000000000000000000000000000000000081526004016104f0906109bc565b60405180910390fd5b600015156002600084815260200190815260200160002060040160009054906101000a900460ff16151514610563576040517f08c379a000000000000000000000000000000000000000000000000000000000815260040161055a90610ae0565b60405180910390fd5b60001515600360003373ffffffffffffffffffffffffffffffffffffffff1673ffffffffffffffffffffffffffffffffffffffff168152602001908152602001600020600084815260200190815260200160002060009054906101000a900460ff16151514610607576040517f08c379a00000000000000000000000000000000000000000000000000000000081526004016105fe90610b4c565b60405180910390fd5b60026000838152602001908152602001600020600301600081548092919061062e906108f0565b9190505550600154600260008481526020019081526020016000206003015414156107225760006002600084815260200190815260200160002060020160009054906101000a900473ffffffffffffffffffffffffffffffffffffffff16905060006002600085815260200190815260200160002060010154905060016002600086815260200190815260200160002060040160006101000a81548160ff0219169083151502179055508173ffffffffffffffffffffffffffffffffffffffff166108fc829081150290604051600060405180830381858888f1935050505015801561071e573d6000803e3d6000fd5b5050505b5050565b6000819050919050565b61073981610726565b82525050565b60006020820190506107546000830184610730565b92915050565b600080fd5b600073ffffffffffffffffffffffffffffffffffffffff82169050919050565b600061078a8261075f565b9050919050565b61079a8161077f565b81146107a557600080fd5b50565b6000813590506107b781610791565b92915050565b6107c681610726565b81146107d157600080fd5b50565b6000813590506107e3816107bd565b92915050565b60008060408385031215610800576107ff61075a565b5b600061080e858286016107a8565b925050602061081f858286016107d4565b9150509250929050565b60006020828403121561083f5761083e61075a565b5b600061084d848285016107d4565b91505092915050565b60006108618261075f565b9050919050565b61087181610856565b82525050565b600060208201905061088c6000830184610868565b92915050565b7f4e487b7100000000000000000000000000000000000000000000000000000000600052603260045260246000fd5b7f4e487b7100000000000000000000000000000000000000000000000000000000600052601160045260246000fd5b60006108fb82610726565b91507fffffffffffffffffffffffffffffffffffffffffffffffffffffffffffffffff82141561092e5761092d6108c1565b5b600182019050919050565b600082825260208201905092915050565b7f596f7520646f206e6f7420686176652070726f7065722061636365737320726960008201527f6768747300000000000000000000000000000000000000000000000000000000602082015250565b60006109a6602483610939565b91506109b18261094a565b604082019050919050565b600060208201905081810360008301526109d581610999565b9050919050565b7f4e6f7420656e6f7567682066756e647320666f722070726f706f73656420747260008201527f616e73616374696f6e0000000000000000000000000000000000000000000000602082015250565b6000610a38602983610939565b9150610a43826109dc565b604082019050919050565b60006020820190508181036000830152610a6781610a2b565b9050919050565b7f54686973207472616e736665722068617320616c65616479206265656e20736560008201527f6e74000000000000000000000000000000000000000000000000000000000000602082015250565b6000610aca602283610939565b9150610ad582610a6e565b604082019050919050565b60006020820190508181036000830152610af981610abd565b9050919050565b7f63616e6e6f7420766f7465206d6f7265207468616e206f6e6365000000000000600082015250565b6000610b36601a83610939565b9150610b4182610b00565b602082019050919050565b60006020820190508181036000830152610b6581610b29565b905091905056fea26469706673582212202e320598a3692f0547e2f25c71ebb15912fbfad193735443b4262cea63651add64736f6c634300080a0033",
  "immutableReferences": {},
  "source": "// SPDX-License-Identifier: GPL-3.0\npragma solidity >=0.7.0 <0.9.0;\n\ncontract Enderun {\n    // Smart contract draft for Enderun SG multisig wallet\n    address[] public studentGovernment;\n    uint256 public quorum;\n    struct Transfer {\n        uint256 id;\n        uint256 amount;\n        address payable to;\n        uint256 approvals;\n        bool sent;\n    }\n\n    mapping(uint256 => Transfer) transferLog;\n    mapping(address => mapping(uint256 => bool)) approvals;\n    uint256 nextId;\n\n    constructor(address[] memory _studentGovernment, uint256 _quorum) payable {\n        studentGovernment = _studentGovernment;\n        quorum = _quorum;\n    }\n\n    receive() external payable {}\n\n    function deposit() public payable {}\n\n    function balance() public view returns(uint256) {\n        return address(this).balance;\n    }\n\n    function currentId() public view returns(uint256) {\n        // To keep track of transfer proposal history\n        return nextId;\n    }\n\n    function transactionProposal(address payable _to, uint256 _amount) external onlySG {\n        require(_amount <= address(this).balance, \"Not enough funds for proposed transaction\");\n        transferLog[nextId] = Transfer(\n            nextId,\n            _amount,\n            _to,\n            0,\n            false\n        );\n        nextId++;\n    }\n\n    function executeTransaction(uint256 _id) external onlySG {\n       // The transaction functionality will not execute unless enough approvals are incremented. \n       require(transferLog[_id].sent == false, \"This transfer has aleady been sent\");\n       require(approvals[msg.sender][_id] == false, \"cannot vote more than once\");\n       transferLog[_id].approvals++;\n       // if statement executes the function only when the approvals field matches the quorum.\n       if(transferLog[_id].approvals == quorum) {\n           address payable _to = transferLog[_id].to;\n           uint256 _amount = transferLog[_id].amount;\n           transferLog[_id].sent = true;\n           _to.transfer(_amount);\n       }\n    }\n\n    modifier onlySG {\n        // This modifier maps through the student government address array and\n        // only allows a function call if the msg.sender is found within the array. \n        bool allowed = false;\n        for(uint256 i = 0; i < studentGovernment.length; i++){\n            if(studentGovernment[i] == msg.sender) {\n                allowed = true;\n            }\n        }\n        require(allowed == true, \"You do not have proper access rights\");\n        _;\n    }\n}\n",
  "sourcePath": "/Users/emmettchilds-gevero/Desktop/NextJS/enderun-multisig/contracts/EnderunMultisig.sol",
  "compiler": {
    "name": "solc",
    "version": "0.8.10+commit.fc410830.Emscripten.clang"
  },
  "schemaVersion": "3.4.4",
  "updatedAt": "2022-01-09T03:37:41.036Z",
  "networkType": "ethereum",
  "devdoc": {
    "kind": "dev",
    "methods": {},
    "version": 1
  },
  "userdoc": {
    "kind": "user",
    "methods": {},
    "version": 1
  }
}